{
  "transactions": [
    {
      "hash": "0x104d4df6b952967347a1c6b2bf54f50870ac2ff899722bc4c6ea88d052ae6ea3",
      "transactionType": "CALL",
      "contractName": null,
      "contractAddress": "0xaf88d065e77c8cC2239327C5EDb3A432268e5831",
      "function": "approve(address,uint256)",
      "arguments": [
        "0x358961548cC09243980347e7422c214E2fdc88c0",
        "100000000"
      ],
      "transaction": {
        "from": "0x8c3D9A0312890527afc6aE4Ee16Ca263Fbb0dCCd",
        "to": "0xaf88d065e77c8cC2239327C5EDb3A432268e5831",
        "gas": "0x1b4a7",
        "value": "0x0",
        "input": "0x095ea7b3000000000000000000000000358961548cc09243980347e7422c214e2fdc88c00000000000000000000000000000000000000000000000000000000005f5e100",
        "nonce": "0x5",
        "chainId": "0xa4b1"
      },
      "additionalContracts": [],
      "isFixedGasLimit": false
    },
    {
      "hash": "0x5cebd189eeb8f03c5afc3f991f8b32980fcbb7602b296611bde704103e070544",
      "transactionType": "CALL",
      "contractName": null,
      "contractAddress": "0xFd086bC7CD5C481DCC9C85ebE478A1C0b69FCbb9",
      "function": "approve(address,uint256)",
      "arguments": [
        "0x358961548cC09243980347e7422c214E2fdc88c0",
        "100000000"
      ],
      "transaction": {
        "from": "0x8c3D9A0312890527afc6aE4Ee16Ca263Fbb0dCCd",
        "to": "0xFd086bC7CD5C481DCC9C85ebE478A1C0b69FCbb9",
        "gas": "0x1ab22",
        "value": "0x0",
        "input": "0x095ea7b3000000000000000000000000358961548cc09243980347e7422c214e2fdc88c00000000000000000000000000000000000000000000000000000000005f5e100",
        "nonce": "0x6",
        "chainId": "0xa4b1"
      },
      "additionalContracts": [],
      "isFixedGasLimit": false
    },
    {
      "hash": "0xbaa97936362b0e321437fe3d43058212111bf7aa39d54ecfe4fca6ee0a2e8fbf",
      "transactionType": "CALL",
      "contractName": null,
      "contractAddress": "0x358961548cC09243980347e7422c214E2fdc88c0",
      "function": "deposit(uint256,address)",
      "arguments": [
        "100009999999",
        "0x8c3D9A0312890527afc6aE4Ee16Ca263Fbb0dCCd"
      ],
      "transaction": {
        "from": "0x8c3D9A0312890527afc6aE4Ee16Ca263Fbb0dCCd",
        "to": "0x358961548cC09243980347e7422c214E2fdc88c0",
        "gas": "0xb660d",
        "value": "0x0",
        "input": "0x6e553f6500000000000000000000000000000000000000000000000000000017490f7e7f0000000000000000000000008c3d9a0312890527afc6ae4ee16ca263fbb0dccd",
        "nonce": "0x7",
        "chainId": "0xa4b1"
      },
      "additionalContracts": [],
      "isFixedGasLimit": false
    }
  ],
  "receipts": [
    {
      "status": "0x1",
      "cumulativeGasUsed": "0x639f1",
      "logs": [
        {
          "address": "0xaf88d065e77c8cC2239327C5EDb3A432268e5831",
          "topics": [
            "0x8c5be1e5ebec7d5bd14f71427d1e84f3dd0314c0f7b2291e5b200ac8c7c3b925",
            "0x0000000000000000000000008c3d9a0312890527afc6ae4ee16ca263fbb0dccd",
            "0x000000000000000000000000358961548cc09243980347e7422c214e2fdc88c0"
          ],
          "data": "0x0000000000000000000000000000000000000000000000000000000005f5e100",
          "blockHash": "0xa9cf4ec71ecec7e083f9b14bb38b2273566d7923d0ff0d0c5afebd6019a7b0a0",
          "blockNumber": "0x13bd4ede",
          "transactionHash": "0x104d4df6b952967347a1c6b2bf54f50870ac2ff899722bc4c6ea88d052ae6ea3",
          "transactionIndex": "0x4",
          "logIndex": "0x3",
          "removed": false
        }
      ],
      "logsBloom": "0x00000000000000080000000000000000080002000000000000000000000000000000000000000000000000000000000000000001000000000000000000200000100000000000000000000000000000000000000000000000000000000000000000000000000000000000000000000000000000000000000000000000000000000000000000000000000000004000000000000000000000000000000000000000020000000000000000000000000000000000000000000000000000000000000000002000000000000000000000000000000000000000000000000000000000000014000000000000000000000000200000000000000000000000000000000000",
      "type": "0x2",
      "transactionHash": "0x104d4df6b952967347a1c6b2bf54f50870ac2ff899722bc4c6ea88d052ae6ea3",
      "transactionIndex": "0x4",
      "blockHash": "0xa9cf4ec71ecec7e083f9b14bb38b2273566d7923d0ff0d0c5afebd6019a7b0a0",
      "blockNumber": "0x13bd4ede",
      "gasUsed": "0x131f0",
      "effectiveGasPrice": "0x989680",
      "from": "0x8c3D9A0312890527afc6aE4Ee16Ca263Fbb0dCCd",
      "to": "0xaf88d065e77c8cC2239327C5EDb3A432268e5831",
      "contractAddress": null,
      "gasUsedForL1": "0x5963",
      "l1BlockNumber": "0x15553a3"
    },
    {
      "status": "0x1",
      "cumulativeGasUsed": "0x51afe",
      "logs": [
        {
          "address": "0xFd086bC7CD5C481DCC9C85ebE478A1C0b69FCbb9",
          "topics": [
            "0x8c5be1e5ebec7d5bd14f71427d1e84f3dd0314c0f7b2291e5b200ac8c7c3b925",
            "0x0000000000000000000000008c3d9a0312890527afc6ae4ee16ca263fbb0dccd",
            "0x000000000000000000000000358961548cc09243980347e7422c214e2fdc88c0"
          ],
          "data": "0x0000000000000000000000000000000000000000000000000000000005f5e100",
          "blockHash": "0xe17c2ccc64571010c34b0dfd727ea81886efdd282f782505614c794848fb9b6a",
          "blockNumber": "0x13bd4ee2",
          "transactionHash": "0x5cebd189eeb8f03c5afc3f991f8b32980fcbb7602b296611bde704103e070544",
          "transactionIndex": "0x3",
          "logIndex": "0x3",
          "removed": false
        }
      ],
      "logsBloom": "0x00000000000000080000000000000000080002000000000000000000000000000000000000000000000000000000000000000000000000000000000000200000100010000000000000000000000000000000000000000000000000000000000000000000000000000000000000000000000000000000000000000000000000000000000000000000000000004000000000000000000000000000000000000000020000000000000000000000000000000000000000000000000000000000000000008000000000000000000000000000000000000000000000000000000000000014000000000000000000000000000010000000000000000000000000000000",
      "type": "0x2",
      "transactionHash": "0x5cebd189eeb8f03c5afc3f991f8b32980fcbb7602b296611bde704103e070544",
      "transactionIndex": "0x3",
      "blockHash": "0xe17c2ccc64571010c34b0dfd727ea81886efdd282f782505614c794848fb9b6a",
      "blockNumber": "0x13bd4ee2",
      "gasUsed": "0x12aa5",
      "effectiveGasPrice": "0x989680",
      "from": "0x8c3D9A0312890527afc6aE4Ee16Ca263Fbb0dCCd",
      "to": "0xFd086bC7CD5C481DCC9C85ebE478A1C0b69FCbb9",
      "contractAddress": null,
      "gasUsedForL1": "0x5963",
      "l1BlockNumber": "0x15553a3"
    },
    {
      "status": "0x1",
      "cumulativeGasUsed": "0x89a02",
      "logs": [
        {
          "address": "0xaf88d065e77c8cC2239327C5EDb3A432268e5831",
          "topics": [
            "0xddf252ad1be2c89b69c2b068fc378daa952ba7f163c4a11628f55a4df523b3ef",
            "0x0000000000000000000000008c3d9a0312890527afc6ae4ee16ca263fbb0dccd",
            "0x000000000000000000000000358961548cc09243980347e7422c214e2fdc88c0"
          ],
          "data": "0x0000000000000000000000000000000000000000000000000000000000989680",
          "blockHash": "0x9aff58db1487a6229335dc8231ad0cd878e4471dd528aab08f06463f80dfc712",
          "blockNumber": "0x13bd4ee7",
          "transactionHash": "0xbaa97936362b0e321437fe3d43058212111bf7aa39d54ecfe4fca6ee0a2e8fbf",
          "transactionIndex": "0x1",
          "logIndex": "0x0",
          "removed": false
        },
        {
          "address": "0xFd086bC7CD5C481DCC9C85ebE478A1C0b69FCbb9",
          "topics": [
            "0xddf252ad1be2c89b69c2b068fc378daa952ba7f163c4a11628f55a4df523b3ef",
            "0x0000000000000000000000008c3d9a0312890527afc6ae4ee16ca263fbb0dccd",
            "0x000000000000000000000000358961548cc09243980347e7422c214e2fdc88c0"
          ],
          "data": "0x0000000000000000000000000000000000000000000000000000000000989680",
          "blockHash": "0x9aff58db1487a6229335dc8231ad0cd878e4471dd528aab08f06463f80dfc712",
          "blockNumber": "0x13bd4ee7",
          "transactionHash": "0xbaa97936362b0e321437fe3d43058212111bf7aa39d54ecfe4fca6ee0a2e8fbf",
          "transactionIndex": "0x1",
          "logIndex": "0x1",
          "removed": false
        },
        {
          "address": "0xFd086bC7CD5C481DCC9C85ebE478A1C0b69FCbb9",
          "topics": [
            "0x8c5be1e5ebec7d5bd14f71427d1e84f3dd0314c0f7b2291e5b200ac8c7c3b925",
            "0x0000000000000000000000008c3d9a0312890527afc6ae4ee16ca263fbb0dccd",
            "0x000000000000000000000000358961548cc09243980347e7422c214e2fdc88c0"
          ],
          "data": "0x00000000000000000000000000000000000000000000000000000000055d4a80",
          "blockHash": "0x9aff58db1487a6229335dc8231ad0cd878e4471dd528aab08f06463f80dfc712",
          "blockNumber": "0x13bd4ee7",
          "transactionHash": "0xbaa97936362b0e321437fe3d43058212111bf7aa39d54ecfe4fca6ee0a2e8fbf",
          "transactionIndex": "0x1",
          "logIndex": "0x2",
          "removed": false
        },
        {
          "address": "0xaf88d065e77c8cC2239327C5EDb3A432268e5831",
          "topics": [
            "0x8c5be1e5ebec7d5bd14f71427d1e84f3dd0314c0f7b2291e5b200ac8c7c3b925",
            "0x000000000000000000000000358961548cc09243980347e7422c214e2fdc88c0",
            "0x000000000000000000000000794a61358d6845594f94dc1db02a252b5b4814ad"
          ],
          "data": "0x0000000000000000000000000000000000000000000000000000000000989680",
          "blockHash": "0x9aff58db1487a6229335dc8231ad0cd878e4471dd528aab08f06463f80dfc712",
          "blockNumber": "0x13bd4ee7",
          "transactionHash": "0xbaa97936362b0e321437fe3d43058212111bf7aa39d54ecfe4fca6ee0a2e8fbf",
          "transactionIndex": "0x1",
          "logIndex": "0x3",
          "removed": false
        },
        {
          "address": "0x794a61358D6845594F94dc1DB02A252b5b4814aD",
          "topics": [
            "0x804c9b842b2748a22bb64b345453a3de7ca54a6ca45ce00d415894979e22897a",
            "0x000000000000000000000000af88d065e77c8cc2239327c5edb3a432268e5831"
          ],
          "data": "0x000000000000000000000000000000000000000000172a53689a227c7c55fe92000000000000000000000000000000000000000000000000000000000000000000000000000000000000000000000000000000000025acca9a658ba1cac95bfe000000000000000000000000000000000000000003a588fae125557e9d32f223000000000000000000000000000000000000000003c670ab5cc14e9c3db5c267",
          "blockHash": "0x9aff58db1487a6229335dc8231ad0cd878e4471dd528aab08f06463f80dfc712",
          "blockNumber": "0x13bd4ee7",
          "transactionHash": "0xbaa97936362b0e321437fe3d43058212111bf7aa39d54ecfe4fca6ee0a2e8fbf",
          "transactionIndex": "0x1",
          "logIndex": "0x4",
          "removed": false
        },
        {
          "address": "0xaf88d065e77c8cC2239327C5EDb3A432268e5831",
          "topics": [
            "0xddf252ad1be2c89b69c2b068fc378daa952ba7f163c4a11628f55a4df523b3ef",
            "0x000000000000000000000000358961548cc09243980347e7422c214e2fdc88c0",
            "0x000000000000000000000000724dc807b04555b71ed48a6896b6f41593b8c637"
          ],
          "data": "0x0000000000000000000000000000000000000000000000000000000000989680",
          "blockHash": "0x9aff58db1487a6229335dc8231ad0cd878e4471dd528aab08f06463f80dfc712",
          "blockNumber": "0x13bd4ee7",
          "transactionHash": "0xbaa97936362b0e321437fe3d43058212111bf7aa39d54ecfe4fca6ee0a2e8fbf",
          "transactionIndex": "0x1",
          "logIndex": "0x5",
          "removed": false
        },
        {
          "address": "0x929EC64c34a17401F460460D4B9390518E5B473e",
          "topics": [
            "0x3303facd24627943a92e9dc87cfbb34b15c49b726eec3ad3487c16be9ab8efe8",
            "0x000000000000000000000000724dc807b04555b71ed48a6896b6f41593b8c637",
            "0x000000000000000000000000912ce59144191c1204e64559fe8253a0e49e6548",
            "0x000000000000000000000000358961548cc09243980347e7422c214e2fdc88c0"
          ],
          "data": "0x0000000000000000000000000000000000000000000000000008c8630b7c7c550000000000000000000000000000000000000000000000000008c8630b7c7c550000000000000000000000000000000000000000000000000000000000000000",
          "blockHash": "0x9aff58db1487a6229335dc8231ad0cd878e4471dd528aab08f06463f80dfc712",
          "blockNumber": "0x13bd4ee7",
          "transactionHash": "0xbaa97936362b0e321437fe3d43058212111bf7aa39d54ecfe4fca6ee0a2e8fbf",
          "transactionIndex": "0x1",
          "logIndex": "0x6",
          "removed": false
        },
        {
          "address": "0x724dc807b04555b71ed48a6896b6F41593b8C637",
          "topics": [
            "0xddf252ad1be2c89b69c2b068fc378daa952ba7f163c4a11628f55a4df523b3ef",
            "0x0000000000000000000000000000000000000000000000000000000000000000",
            "0x000000000000000000000000358961548cc09243980347e7422c214e2fdc88c0"
          ],
          "data": "0x0000000000000000000000000000000000000000000000000000000000989680",
          "blockHash": "0x9aff58db1487a6229335dc8231ad0cd878e4471dd528aab08f06463f80dfc712",
          "blockNumber": "0x13bd4ee7",
          "transactionHash": "0xbaa97936362b0e321437fe3d43058212111bf7aa39d54ecfe4fca6ee0a2e8fbf",
          "transactionIndex": "0x1",
          "logIndex": "0x7",
          "removed": false
        },
        {
          "address": "0x724dc807b04555b71ed48a6896b6F41593b8C637",
          "topics": [
            "0x458f5fa412d0f69b08dd84872b0215675cc67bc1d5b6fd93300a1c3878b86196",
            "0x000000000000000000000000358961548cc09243980347e7422c214e2fdc88c0",
            "0x000000000000000000000000358961548cc09243980347e7422c214e2fdc88c0"
          ],
          "data": "0x00000000000000000000000000000000000000000000000000000000009896800000000000000000000000000000000000000000000000000000000000000000000000000000000000000000000000000000000003a588fae125557e9d32f223",
          "blockHash": "0x9aff58db1487a6229335dc8231ad0cd878e4471dd528aab08f06463f80dfc712",
          "blockNumber": "0x13bd4ee7",
          "transactionHash": "0xbaa97936362b0e321437fe3d43058212111bf7aa39d54ecfe4fca6ee0a2e8fbf",
          "transactionIndex": "0x1",
          "logIndex": "0x8",
          "removed": false
        },
        {
          "address": "0x794a61358D6845594F94dc1DB02A252b5b4814aD",
          "topics": [
            "0x00058a56ea94653cdf4f152d227ace22d4c00ad99e2a43f58cb7d9e3feb295f2",
            "0x000000000000000000000000af88d065e77c8cc2239327c5edb3a432268e5831",
            "0x000000000000000000000000358961548cc09243980347e7422c214e2fdc88c0"
          ],
          "data": "0x",
          "blockHash": "0x9aff58db1487a6229335dc8231ad0cd878e4471dd528aab08f06463f80dfc712",
          "blockNumber": "0x13bd4ee7",
          "transactionHash": "0xbaa97936362b0e321437fe3d43058212111bf7aa39d54ecfe4fca6ee0a2e8fbf",
          "transactionIndex": "0x1",
          "logIndex": "0x9",
          "removed": false
        },
        {
          "address": "0x794a61358D6845594F94dc1DB02A252b5b4814aD",
          "topics": [
            "0x2b627736bca15cd5381dcf80b0bf11fd197d01a037c52b927a881a10fb73ba61",
            "0x000000000000000000000000af88d065e77c8cc2239327c5edb3a432268e5831",
            "0x000000000000000000000000358961548cc09243980347e7422c214e2fdc88c0",
            "0x0000000000000000000000000000000000000000000000000000000000000000"
          ],
          "data": "0x000000000000000000000000358961548cc09243980347e7422c214e2fdc88c00000000000000000000000000000000000000000000000000000000000989680",
          "blockHash": "0x9aff58db1487a6229335dc8231ad0cd878e4471dd528aab08f06463f80dfc712",
          "blockNumber": "0x13bd4ee7",
          "transactionHash": "0xbaa97936362b0e321437fe3d43058212111bf7aa39d54ecfe4fca6ee0a2e8fbf",
          "transactionIndex": "0x1",
          "logIndex": "0xa",
          "removed": false
        },
        {
          "address": "0xFd086bC7CD5C481DCC9C85ebE478A1C0b69FCbb9",
          "topics": [
            "0x8c5be1e5ebec7d5bd14f71427d1e84f3dd0314c0f7b2291e5b200ac8c7c3b925",
            "0x000000000000000000000000358961548cc09243980347e7422c214e2fdc88c0",
            "0x000000000000000000000000794a61358d6845594f94dc1db02a252b5b4814ad"
          ],
          "data": "0x0000000000000000000000000000000000000000000000000000000000989680",
          "blockHash": "0x9aff58db1487a6229335dc8231ad0cd878e4471dd528aab08f06463f80dfc712",
          "blockNumber": "0x13bd4ee7",
          "transactionHash": "0xbaa97936362b0e321437fe3d43058212111bf7aa39d54ecfe4fca6ee0a2e8fbf",
          "transactionIndex": "0x1",
          "logIndex": "0xb",
          "removed": false
        },
        {
          "address": "0x794a61358D6845594F94dc1DB02A252b5b4814aD",
          "topics": [
            "0x804c9b842b2748a22bb64b345453a3de7ca54a6ca45ce00d415894979e22897a",
            "0x000000000000000000000000fd086bc7cd5c481dcc9c85ebe478a1c0b69fcbb9"
          ],
          "data": "0x0000000000000000000000000000000000000000001743afd763f69f8a4379fb000000000000000000000000000000000000000000000000000000000000000000000000000000000000000000000000000000000025c2db6dd6e3ded9a8289c000000000000000000000000000000000000000003cf451bf441e1a521dcac2b0000000000000000000000000000000000000000040757e0153ecce7cac69a31",
          "blockHash": "0x9aff58db1487a6229335dc8231ad0cd878e4471dd528aab08f06463f80dfc712",
          "blockNumber": "0x13bd4ee7",
          "transactionHash": "0xbaa97936362b0e321437fe3d43058212111bf7aa39d54ecfe4fca6ee0a2e8fbf",
          "transactionIndex": "0x1",
          "logIndex": "0xc",
          "removed": false
        },
        {
          "address": "0xFd086bC7CD5C481DCC9C85ebE478A1C0b69FCbb9",
          "topics": [
            "0xddf252ad1be2c89b69c2b068fc378daa952ba7f163c4a11628f55a4df523b3ef",
            "0x000000000000000000000000358961548cc09243980347e7422c214e2fdc88c0",
            "0x0000000000000000000000006ab707aca953edaefbc4fd23ba73294241490620"
          ],
          "data": "0x0000000000000000000000000000000000000000000000000000000000989680",
          "blockHash": "0x9aff58db1487a6229335dc8231ad0cd878e4471dd528aab08f06463f80dfc712",
          "blockNumber": "0x13bd4ee7",
          "transactionHash": "0xbaa97936362b0e321437fe3d43058212111bf7aa39d54ecfe4fca6ee0a2e8fbf",
          "transactionIndex": "0x1",
          "logIndex": "0xd",
          "removed": false
        },
        {
          "address": "0xFd086bC7CD5C481DCC9C85ebE478A1C0b69FCbb9",
          "topics": [
            "0x8c5be1e5ebec7d5bd14f71427d1e84f3dd0314c0f7b2291e5b200ac8c7c3b925",
            "0x000000000000000000000000358961548cc09243980347e7422c214e2fdc88c0",
            "0x000000000000000000000000794a61358d6845594f94dc1db02a252b5b4814ad"
          ],
          "data": "0x0000000000000000000000000000000000000000000000000000000000000000",
          "blockHash": "0x9aff58db1487a6229335dc8231ad0cd878e4471dd528aab08f06463f80dfc712",
          "blockNumber": "0x13bd4ee7",
          "transactionHash": "0xbaa97936362b0e321437fe3d43058212111bf7aa39d54ecfe4fca6ee0a2e8fbf",
          "transactionIndex": "0x1",
          "logIndex": "0xe",
          "removed": false
        },
        {
          "address": "0x6ab707Aca953eDAeFBc4fD23bA73294241490620",
          "topics": [
            "0xddf252ad1be2c89b69c2b068fc378daa952ba7f163c4a11628f55a4df523b3ef",
            "0x0000000000000000000000000000000000000000000000000000000000000000",
            "0x000000000000000000000000358961548cc09243980347e7422c214e2fdc88c0"
          ],
          "data": "0x0000000000000000000000000000000000000000000000000000000000989680",
          "blockHash": "0x9aff58db1487a6229335dc8231ad0cd878e4471dd528aab08f06463f80dfc712",
          "blockNumber": "0x13bd4ee7",
          "transactionHash": "0xbaa97936362b0e321437fe3d43058212111bf7aa39d54ecfe4fca6ee0a2e8fbf",
          "transactionIndex": "0x1",
          "logIndex": "0xf",
          "removed": false
        },
        {
          "address": "0x6ab707Aca953eDAeFBc4fD23bA73294241490620",
          "topics": [
            "0x458f5fa412d0f69b08dd84872b0215675cc67bc1d5b6fd93300a1c3878b86196",
            "0x000000000000000000000000358961548cc09243980347e7422c214e2fdc88c0",
            "0x000000000000000000000000358961548cc09243980347e7422c214e2fdc88c0"
          ],
          "data": "0x00000000000000000000000000000000000000000000000000000000009896800000000000000000000000000000000000000000000000000000000000000000000000000000000000000000000000000000000003cf451bf441e1a521dcac2b",
          "blockHash": "0x9aff58db1487a6229335dc8231ad0cd878e4471dd528aab08f06463f80dfc712",
          "blockNumber": "0x13bd4ee7",
          "transactionHash": "0xbaa97936362b0e321437fe3d43058212111bf7aa39d54ecfe4fca6ee0a2e8fbf",
          "transactionIndex": "0x1",
          "logIndex": "0x10",
          "removed": false
        },
        {
          "address": "0x794a61358D6845594F94dc1DB02A252b5b4814aD",
          "topics": [
            "0x00058a56ea94653cdf4f152d227ace22d4c00ad99e2a43f58cb7d9e3feb295f2",
            "0x000000000000000000000000fd086bc7cd5c481dcc9c85ebe478a1c0b69fcbb9",
            "0x000000000000000000000000358961548cc09243980347e7422c214e2fdc88c0"
          ],
          "data": "0x",
          "blockHash": "0x9aff58db1487a6229335dc8231ad0cd878e4471dd528aab08f06463f80dfc712",
          "blockNumber": "0x13bd4ee7",
          "transactionHash": "0xbaa97936362b0e321437fe3d43058212111bf7aa39d54ecfe4fca6ee0a2e8fbf",
          "transactionIndex": "0x1",
          "logIndex": "0x11",
          "removed": false
        },
        {
          "address": "0x794a61358D6845594F94dc1DB02A252b5b4814aD",
          "topics": [
            "0x2b627736bca15cd5381dcf80b0bf11fd197d01a037c52b927a881a10fb73ba61",
            "0x000000000000000000000000fd086bc7cd5c481dcc9c85ebe478a1c0b69fcbb9",
            "0x000000000000000000000000358961548cc09243980347e7422c214e2fdc88c0",
            "0x0000000000000000000000000000000000000000000000000000000000000000"
          ],
          "data": "0x000000000000000000000000358961548cc09243980347e7422c214e2fdc88c00000000000000000000000000000000000000000000000000000000000989680",
          "blockHash": "0x9aff58db1487a6229335dc8231ad0cd878e4471dd528aab08f06463f80dfc712",
          "blockNumber": "0x13bd4ee7",
          "transactionHash": "0xbaa97936362b0e321437fe3d43058212111bf7aa39d54ecfe4fca6ee0a2e8fbf",
          "transactionIndex": "0x1",
          "logIndex": "0x12",
          "removed": false
        },
        {
          "address": "0x358961548cC09243980347e7422c214E2fdc88c0",
          "topics": [
            "0xddf252ad1be2c89b69c2b068fc378daa952ba7f163c4a11628f55a4df523b3ef",
            "0x0000000000000000000000000000000000000000000000000000000000000000",
            "0x0000000000000000000000008c3d9a0312890527afc6ae4ee16ca263fbb0dccd"
          ],
          "data": "0x00000000000000000000000000000000000000000000000000000017490f7e7f",
          "blockHash": "0x9aff58db1487a6229335dc8231ad0cd878e4471dd528aab08f06463f80dfc712",
          "blockNumber": "0x13bd4ee7",
          "transactionHash": "0xbaa97936362b0e321437fe3d43058212111bf7aa39d54ecfe4fca6ee0a2e8fbf",
          "transactionIndex": "0x1",
          "logIndex": "0x13",
          "removed": false
        }
      ],
      "logsBloom": "0x0008000800200808008000000000000009000200000000000000000000000000000000000000000010000000000400000000000100000400000000000020008010001020000000000000000800000000000004000000000080400004000000001000000042000010000000000000280000000010000000000000001000000000000000008010000900001000400000000000080000000000000400002000000002000000000000001000000000000000000000000000010000000000040001000200a002000000002000002040000000000000000000210000000000000020000014300000102000000000000000200050000000002000000000480000010000",
      "type": "0x2",
      "transactionHash": "0xbaa97936362b0e321437fe3d43058212111bf7aa39d54ecfe4fca6ee0a2e8fbf",
      "transactionIndex": "0x1",
      "blockHash": "0x9aff58db1487a6229335dc8231ad0cd878e4471dd528aab08f06463f80dfc712",
      "blockNumber": "0x13bd4ee7",
      "gasUsed": "0x89a02",
      "effectiveGasPrice": "0x989680",
      "from": "0x8c3D9A0312890527afc6aE4Ee16Ca263Fbb0dCCd",
      "to": "0x358961548cC09243980347e7422c214E2fdc88c0",
      "contractAddress": null,
      "gasUsedForL1": "0x5963",
      "l1BlockNumber": "0x15553a3"
    }
  ],
  "libraries": [],
  "pending": [],
  "returns": {},
  "timestamp": 1745862980,
  "chain": 42161,
  "commit": "e504ebb"
}