{
  "transactions": [
    {
      "hash": "0xce36dc52d08b1b3967016775ec36a71919cf143b32d0473aca57b04ad8d7f670",
      "transactionType": "CALL",
      "contractName": null,
      "contractAddress": "0xdF07b9430DF6B6E0552A73DC5dC87dc770f7dEFE",
      "function": "deployHook((address,address,address,int24,int24,address,string,string,address,uint256,uint256,uint256),address,uint24,int24,bytes32)",
      "arguments": [
        "(0x360E68faCcca8cA495c1B759Fd9EEe466db9FB32, 0xaf88d065e77c8cC2239327C5EDb3A432268e5831, 0xFd086bC7CD5C481DCC9C85ebE478A1C0b69FCbb9, -2, 2, 0xa97684ead0e402dC232d5A977953DF7ECBaB3CDb, LP, LP, 0x0000000000000000000000000000000000000001, 1000, 25000000, 5000000)",
        "0x80ffc415939913A8E0E667981AE8f017EC0888c0",
        "10",
        "1",
        "0x0000000000000000000000000000000000000000000000000000000000001175"
      ],
      "transaction": {
        "from": "0x8c3D9A0312890527afc6aE4Ee16Ca263Fbb0dCCd",
        "to": "0xdF07b9430DF6B6E0552A73DC5dC87dc770f7dEFE",
        "gas": "0x578eec",
        "value": "0x0",
        "input": "0x080ec1fe00000000000000000000000000000000000000000000000000000000000000a000000000000000000000000080ffc415939913a8e0e667981ae8f017ec0888c0000000000000000000000000000000000000000000000000000000000000000a00000000000000000000000000000000000000000000000000000000000000010000000000000000000000000000000000000000000000000000000000001175000000000000000000000000360e68faccca8ca495c1b759fd9eee466db9fb32000000000000000000000000af88d065e77c8cc2239327c5edb3a432268e5831000000000000000000000000fd086bc7cd5c481dcc9c85ebe478a1c0b69fcbb9fffffffffffffffffffffffffffffffffffffffffffffffffffffffffffffffe0000000000000000000000000000000000000000000000000000000000000002000000000000000000000000a97684ead0e402dc232d5a977953df7ecbab3cdb000000000000000000000000000000000000000000000000000000000000018000000000000000000000000000000000000000000000000000000000000001c0000000000000000000000000000000000000000000000000000000000000000100000000000000000000000000000000000000000000000000000000000003e800000000000000000000000000000000000000000000000000000000017d784000000000000000000000000000000000000000000000000000000000004c4b4000000000000000000000000000000000000000000000000000000000000000024c5000000000000000000000000000000000000000000000000000000000000000000000000000000000000000000000000000000000000000000000000000024c50000000000000000000000000000000000000000000000000000000000000",
        "nonce": "0x1e0",
        "chainId": "0xa4b1"
      },
      "additionalContracts": [],
      "isFixedGasLimit": false
    }
  ],
  "receipts": [
    {
      "status": "0x1",
      "cumulativeGasUsed": "0x44ddf9",
      "logs": [
        {
          "address": "0x360E68faCcca8cA495c1B759Fd9EEe466db9FB32",
          "topics": [
            "0xdd466e674ea557f56295e2d0218a125ea4b4f0f6f3307b95f85e6110838d6438",
            "0x141ad4537bfaf3185a5acda12c0bbcf89014315b53deb0a6f24ca95a76e32f85",
            "0x000000000000000000000000af88d065e77c8cc2239327c5edb3a432268e5831",
            "0x000000000000000000000000fd086bc7cd5c481dcc9c85ebe478a1c0b69fcbb9"
          ],
          "data": "0x000000000000000000000000000000000000000000000000000000000000000a000000000000000000000000000000000000000000000000000000000000000100000000000000000000000080ffc415939913a8e0e667981ae8f017ec0888c000000000000000000000000000000000000000010000000000000000000000000000000000000000000000000000000000000000000000000000000000000000",
          "blockHash": "0x63af950eca4eef844eced041387cbe5635f08529e2ef1b1d4fe11e193a61b0fc",
          "blockNumber": "0x140002f0",
          "transactionHash": "0xce36dc52d08b1b3967016775ec36a71919cf143b32d0473aca57b04ad8d7f670",
          "transactionIndex": "0x2",
          "logIndex": "0x3",
          "removed": false
        },
        {
          "address": "0xdF07b9430DF6B6E0552A73DC5dC87dc770f7dEFE",
          "topics": [
            "0x5e4c3d3fff5ee37d58d6d655013b842a7c68ce420e59b428583260721eebc458",
            "0x00000000000000000000000080ffc415939913a8e0e667981ae8f017ec0888c0",
            "0x141ad4537bfaf3185a5acda12c0bbcf89014315b53deb0a6f24ca95a76e32f85"
          ],
          "data": "0x0000000000000000000000000000000000000000000000000000000000000000",
          "blockHash": "0x63af950eca4eef844eced041387cbe5635f08529e2ef1b1d4fe11e193a61b0fc",
          "blockNumber": "0x140002f0",
          "transactionHash": "0xce36dc52d08b1b3967016775ec36a71919cf143b32d0473aca57b04ad8d7f670",
          "transactionIndex": "0x2",
          "logIndex": "0x4",
          "removed": false
        }
      ],
      "logsBloom": "0x00000000000000000000000000000004100001000000000000000000020000000000000010000000100000000000000000000000000000000000000000000000000000000000000001000000000000000008000000000000004000000000000000000000000000000000001000000000000000000080000000000000000000000000004000000008000080000000000000000005000000000000000000200000000000000000000000000000000000000000000000000000000000000400000000000000000000000000000000000000000004000000200000000000000000000000000000000000001000000000000000000000002000000000080000000008",
      "type": "0x2",
      "transactionHash": "0xce36dc52d08b1b3967016775ec36a71919cf143b32d0473aca57b04ad8d7f670",
      "transactionIndex": "0x2",
      "blockHash": "0x63af950eca4eef844eced041387cbe5635f08529e2ef1b1d4fe11e193a61b0fc",
      "blockNumber": "0x140002f0",
      "gasUsed": "0x42bca3",
      "effectiveGasPrice": "0x989680",
      "from": "0x8c3D9A0312890527afc6aE4Ee16Ca263Fbb0dCCd",
      "to": "0xdF07b9430DF6B6E0552A73DC5dC87dc770f7dEFE",
      "contractAddress": null,
      "gasUsedForL1": "0x5102",
      "l1BlockNumber": "0x156b511"
    }
  ],
  "libraries": [],
  "pending": [],
  "returns": {},
  "timestamp": 1746961287,
  "chain": 42161,
  "commit": "d4b2d31"
}