{
  "transactions": [
    {
      "hash": "0x678db9eacff4e67cfd6ed84bf5407be668c12e1f92e397950e8312fd0cc74223",
      "transactionType": "CALL",
      "contractName": null,
      "contractAddress": "0x0bAa97cD4A375649d21E72824f6cF226Aac96dA9",
      "function": "deployHook((address,address,address,int24,int24,address,string,string,address,uint256,uint256,uint256,uint256,uint256),address,uint160,uint24,int24,bytes32)",
      "arguments": [
        "(0x360E68faCcca8cA495c1B759Fd9EEe466db9FB32, 0xDA10009cBd5D07dd0CeCc66161FC93D7c9000da1, 0xFd086bC7CD5C481DCC9C85ebE478A1C0b69FCbb9, -2, 2, 0xa97684ead0e402dC232d5A977953DF7ECBaB3CDb, LP, LP, 0x0000000000000000000000000000000000000001, 1000, 25000000, 25000000, 5000000, 5000000)",
        "0x3fBaA75f802A48CcD4A9Eb778703841c52D0C8C0",
        "79228162514264337593543",
        "10",
        "1",
        "0x00000000000000000000000000000000000000000000000000000000000040c9"
      ],
      "transaction": {
        "from": "0x8c3D9A0312890527afc6aE4Ee16Ca263Fbb0dCCd",
        "to": "0x0bAa97cD4A375649d21E72824f6cF226Aac96dA9",
        "gas": "0x5ae1dd",
        "value": "0x0",
        "input": "0x84a8254500000000000000000000000000000000000000000000000000000000000000c00000000000000000000000003fbaa75f802a48ccd4a9eb778703841c52d0c8c00000000000000000000000000000000000000000000010c6f7a0b5ed8d36b4c7000000000000000000000000000000000000000000000000000000000000000a000000000000000000000000000000000000000000000000000000000000000100000000000000000000000000000000000000000000000000000000000040c9000000000000000000000000360e68faccca8ca495c1b759fd9eee466db9fb32000000000000000000000000da10009cbd5d07dd0cecc66161fc93d7c9000da1000000000000000000000000fd086bc7cd5c481dcc9c85ebe478a1c0b69fcbb9fffffffffffffffffffffffffffffffffffffffffffffffffffffffffffffffe0000000000000000000000000000000000000000000000000000000000000002000000000000000000000000a97684ead0e402dc232d5a977953df7ecbab3cdb00000000000000000000000000000000000000000000000000000000000001c00000000000000000000000000000000000000000000000000000000000000200000000000000000000000000000000000000000000000000000000000000000100000000000000000000000000000000000000000000000000000000000003e800000000000000000000000000000000000000000000000000000000017d784000000000000000000000000000000000000000000000000000000000017d784000000000000000000000000000000000000000000000000000000000004c4b4000000000000000000000000000000000000000000000000000000000004c4b4000000000000000000000000000000000000000000000000000000000000000024c5000000000000000000000000000000000000000000000000000000000000000000000000000000000000000000000000000000000000000000000000000024c50000000000000000000000000000000000000000000000000000000000000",
        "nonce": "0x2b0",
        "chainId": "0xa4b1"
      },
      "additionalContracts": [],
      "isFixedGasLimit": false
    }
  ],
  "receipts": [
    {
      "status": "0x1",
      "cumulativeGasUsed": "0x453806",
      "logs": [
        {
          "address": "0x360E68faCcca8cA495c1B759Fd9EEe466db9FB32",
          "topics": [
            "0xdd466e674ea557f56295e2d0218a125ea4b4f0f6f3307b95f85e6110838d6438",
            "0x056fb2480bac99ded056026eed720402643bf63d9d4e2bb2322c25e8972ea75c",
            "0x000000000000000000000000da10009cbd5d07dd0cecc66161fc93d7c9000da1",
            "0x000000000000000000000000fd086bc7cd5c481dcc9c85ebe478a1c0b69fcbb9"
          ],
          "data": "0x000000000000000000000000000000000000000000000000000000000000000a00000000000000000000000000000000000000000000000000000000000000010000000000000000000000003fbaa75f802a48ccd4a9eb778703841c52d0c8c00000000000000000000000000000000000000000000010c6f7a0b5ed8d36b4c7fffffffffffffffffffffffffffffffffffffffffffffffffffffffffffbc89b",
          "blockHash": "0xa3533aed58d5a1bc9c31fe424ff6d94fc9fde7a1bf9f97a895c1e16d1cf97159",
          "blockNumber": "0x1401e757",
          "transactionHash": "0x678db9eacff4e67cfd6ed84bf5407be668c12e1f92e397950e8312fd0cc74223",
          "transactionIndex": "0x1",
          "logIndex": "0x0",
          "removed": false
        },
        {
          "address": "0x0bAa97cD4A375649d21E72824f6cF226Aac96dA9",
          "topics": [
            "0x06ff50bb02313073e0bc6b8effcf572f0174f30cfcc297c192bccdfde3cea9f3",
            "0x0000000000000000000000003fbaa75f802a48ccd4a9eb778703841c52d0c8c0",
            "0x056fb2480bac99ded056026eed720402643bf63d9d4e2bb2322c25e8972ea75c"
          ],
          "data": "0x00000000000000000000000000000000000000000000000000000000000000020000000000000000000000000000000000000000000010c6f7a0b5ed8d36b4c7",
          "blockHash": "0xa3533aed58d5a1bc9c31fe424ff6d94fc9fde7a1bf9f97a895c1e16d1cf97159",
          "blockNumber": "0x1401e757",
          "transactionHash": "0x678db9eacff4e67cfd6ed84bf5407be668c12e1f92e397950e8312fd0cc74223",
          "transactionIndex": "0x1",
          "logIndex": "0x1",
          "removed": false
        }
      ],
      "logsBloom": "0x00000000000100000000000000000000000000000000000000000000000000000000000000000000000001000000000000000000000000000000001000000020000000000040000001000400000000000000000000000000004000000000000004000000000000000000000000000000000000000000000000002000000000000000000000000008000000000000000000000001800000000000000100200000000000000000000000000000000000000004000000000000000000000000000000000010000000000000000000000000000004000000200000000000000000000000000000000000000800000000000000000000000000000010080000000008",
      "type": "0x2",
      "transactionHash": "0x678db9eacff4e67cfd6ed84bf5407be668c12e1f92e397950e8312fd0cc74223",
      "transactionIndex": "0x1",
      "blockHash": "0xa3533aed58d5a1bc9c31fe424ff6d94fc9fde7a1bf9f97a895c1e16d1cf97159",
      "blockNumber": "0x1401e757",
      "gasUsed": "0x453806",
      "effectiveGasPrice": "0x989680",
      "from": "0x8c3D9A0312890527afc6aE4Ee16Ca263Fbb0dCCd",
      "to": "0x0bAa97cD4A375649d21E72824f6cF226Aac96dA9",
      "contractAddress": null,
      "gasUsedForL1": "0xa1fe",
      "l1BlockNumber": "0x156bf15"
    }
  ],
  "libraries": [],
  "pending": [],
  "returns": {},
  "timestamp": 1746992426,
  "chain": 42161,
  "commit": "5b5cd7d"
}