{
  "transactions": [
    {
      "hash": "0x1d334ed3db6c4fe2b2c1e06c99d2ea4cf436f7ba65d213fa03361d137ad3783c",
      "transactionType": "CALL",
      "contractName": null,
      "contractAddress": "0x0bAa97cD4A375649d21E72824f6cF226Aac96dA9",
      "function": "deployHook((address,address,address,int24,int24,address,string,string,address,uint256,uint256,uint256,uint256,uint256),address,uint160,uint24,int24,bytes32)",
      "arguments": [
        "(0x360E68faCcca8cA495c1B759Fd9EEe466db9FB32, 0xDA10009cBd5D07dd0CeCc66161FC93D7c9000da1, 0xFd086bC7CD5C481DCC9C85ebE478A1C0b69FCbb9, -2, 2, 0xa97684ead0e402dC232d5A977953DF7ECBaB3CDb, LP, LP, 0x0000000000000000000000000000000000000001, 1000, 25000000, 25000000, 5000000, 5000000)",
        "0x9e49beCF0D46ad329E4d8bD0F4b6224F679548c0",
        "79228162514264337593543950336000000",
        "10",
        "1",
        "0x0000000000000000000000000000000000000000000000000000000000002d3c"
      ],
      "transaction": {
        "from": "0x8c3D9A0312890527afc6aE4Ee16Ca263Fbb0dCCd",
        "to": "0x0bAa97cD4A375649d21E72824f6cF226Aac96dA9",
        "gas": "0x5ab9ea",
        "value": "0x0",
        "input": "0x84a8254500000000000000000000000000000000000000000000000000000000000000c00000000000000000000000009e49becf0d46ad329e4d8bd0f4b6224f679548c000000000000000000000000000000000000f4240000000000000000000000000000000000000000000000000000000000000000000000000000000000000000a00000000000000000000000000000000000000000000000000000000000000010000000000000000000000000000000000000000000000000000000000002d3c000000000000000000000000360e68faccca8ca495c1b759fd9eee466db9fb32000000000000000000000000da10009cbd5d07dd0cecc66161fc93d7c9000da1000000000000000000000000fd086bc7cd5c481dcc9c85ebe478a1c0b69fcbb9fffffffffffffffffffffffffffffffffffffffffffffffffffffffffffffffe0000000000000000000000000000000000000000000000000000000000000002000000000000000000000000a97684ead0e402dc232d5a977953df7ecbab3cdb00000000000000000000000000000000000000000000000000000000000001c00000000000000000000000000000000000000000000000000000000000000200000000000000000000000000000000000000000000000000000000000000000100000000000000000000000000000000000000000000000000000000000003e800000000000000000000000000000000000000000000000000000000017d784000000000000000000000000000000000000000000000000000000000017d784000000000000000000000000000000000000000000000000000000000004c4b4000000000000000000000000000000000000000000000000000000000004c4b4000000000000000000000000000000000000000000000000000000000000000024c5000000000000000000000000000000000000000000000000000000000000000000000000000000000000000000000000000000000000000000000000000024c50000000000000000000000000000000000000000000000000000000000000",
        "nonce": "0x2ab",
        "chainId": "0xa4b1"
      },
      "additionalContracts": [],
      "isFixedGasLimit": false
    }
  ],
  "receipts": [
    {
      "status": "0x1",
      "cumulativeGasUsed": "0x451df9",
      "logs": [
        {
          "address": "0x360E68faCcca8cA495c1B759Fd9EEe466db9FB32",
          "topics": [
            "0xdd466e674ea557f56295e2d0218a125ea4b4f0f6f3307b95f85e6110838d6438",
            "0x54d8132747299f156c82aad4522511e32bef3e3d3846958fbc4636f6c3602c77",
            "0x000000000000000000000000da10009cbd5d07dd0cecc66161fc93d7c9000da1",
            "0x000000000000000000000000fd086bc7cd5c481dcc9c85ebe478a1c0b69fcbb9"
          ],
          "data": "0x000000000000000000000000000000000000000000000000000000000000000a00000000000000000000000000000000000000000000000000000000000000010000000000000000000000009e49becf0d46ad329e4d8bd0f4b6224f679548c000000000000000000000000000000000000f42400000000000000000000000000000000000000000000000000000000000000000000000000000000000043764",
          "blockHash": "0x2885a1f28edfe40bf1ce9d4cd828da766d8232f3ad692a6f076bedec54edbf16",
          "blockNumber": "0x1401d94b",
          "transactionHash": "0x1d334ed3db6c4fe2b2c1e06c99d2ea4cf436f7ba65d213fa03361d137ad3783c",
          "transactionIndex": "0x1",
          "logIndex": "0x0",
          "removed": false
        },
        {
          "address": "0x0bAa97cD4A375649d21E72824f6cF226Aac96dA9",
          "topics": [
            "0x06ff50bb02313073e0bc6b8effcf572f0174f30cfcc297c192bccdfde3cea9f3",
            "0x0000000000000000000000009e49becf0d46ad329e4d8bd0f4b6224f679548c0",
            "0x54d8132747299f156c82aad4522511e32bef3e3d3846958fbc4636f6c3602c77"
          ],
          "data": "0x000000000000000000000000000000000000000000000000000000000000000100000000000000000000000000000000000f4240000000000000000000000000",
          "blockHash": "0x2885a1f28edfe40bf1ce9d4cd828da766d8232f3ad692a6f076bedec54edbf16",
          "blockNumber": "0x1401d94b",
          "transactionHash": "0x1d334ed3db6c4fe2b2c1e06c99d2ea4cf436f7ba65d213fa03361d137ad3783c",
          "transactionIndex": "0x1",
          "logIndex": "0x1",
          "removed": false
        }
      ],
      "logsBloom": "0x00000000000000000000000000000004000000000000000000000000000000000000000000000000000001000000000000000000000000000000000000000000000000000040000001000400000000000000000040000000004000000000000000000000000000000000000000000000000000000000000000102000000000000000000000000008000000000000000800000001880000000000000100200000000000000000000000080000000000000004000000000000000000000000000000000010000000000000000000000000000004000000200000000000000000000000000000000000000800000000000000000000000000000000080000000008",
      "type": "0x2",
      "transactionHash": "0x1d334ed3db6c4fe2b2c1e06c99d2ea4cf436f7ba65d213fa03361d137ad3783c",
      "transactionIndex": "0x1",
      "blockHash": "0x2885a1f28edfe40bf1ce9d4cd828da766d8232f3ad692a6f076bedec54edbf16",
      "blockNumber": "0x1401d94b",
      "gasUsed": "0x451df9",
      "effectiveGasPrice": "0x989680",
      "from": "0x8c3D9A0312890527afc6aE4Ee16Ca263Fbb0dCCd",
      "to": "0x0bAa97cD4A375649d21E72824f6cF226Aac96dA9",
      "contractAddress": null,
      "gasUsedForL1": "0x8844",
      "l1BlockNumber": "0x156beca"
    }
  ],
  "libraries": [],
  "pending": [],
  "returns": {},
  "timestamp": 1746991522,
  "chain": 42161,
  "commit": "5b5cd7d"
}