{
  "transactions": [
    {
      "hash": "0xa1dd4abeb87e5863cbe46858a128b4b7ddc11355b719ee83f6ff76eb0322a605",
      "transactionType": "CALL",
      "contractName": null,
      "contractAddress": "0x10BF3E582fc11D5629743E93beDC39b838C603cc",
      "function": "deployHook((address,address,address,int24,int24,address,string,string,address,uint256,uint256,uint256,uint256,uint256),address,uint160,uint24,int24,bytes32)",
      "arguments": [
        "(0x360E68faCcca8cA495c1B759Fd9EEe466db9FB32, 0xDA10009cBd5D07dd0CeCc66161FC93D7c9000da1, 0xFd086bC7CD5C481DCC9C85ebE478A1C0b69FCbb9, -276327, -276323, 0xa97684ead0e402dC232d5A977953DF7ECBaB3CDb, LP, LP, 0x0000000000000000000000000000000000000001, 1000, 25000000, 25000000, 5000000, 5000000)",
        "0xccC7C10b872A9F449FA41Ef7a723ACB1615548C0",
        "79228162514264337593543",
        "10",
        "1",
        "0x0000000000000000000000000000000000000000000000000000000000004258"
      ],
      "transaction": {
        "from": "0x8c3D9A0312890527afc6aE4Ee16Ca263Fbb0dCCd",
        "to": "0x10BF3E582fc11D5629743E93beDC39b838C603cc",
        "gas": "0x5ceff4",
        "value": "0x0",
        "input": "0x84a8254500000000000000000000000000000000000000000000000000000000000000c0000000000000000000000000ccc7c10b872a9f449fa41ef7a723acb1615548c00000000000000000000000000000000000000000000010c6f7a0b5ed8d36b4c7000000000000000000000000000000000000000000000000000000000000000a00000000000000000000000000000000000000000000000000000000000000010000000000000000000000000000000000000000000000000000000000004258000000000000000000000000360e68faccca8ca495c1b759fd9eee466db9fb32000000000000000000000000da10009cbd5d07dd0cecc66161fc93d7c9000da1000000000000000000000000fd086bc7cd5c481dcc9c85ebe478a1c0b69fcbb9fffffffffffffffffffffffffffffffffffffffffffffffffffffffffffbc899fffffffffffffffffffffffffffffffffffffffffffffffffffffffffffbc89d000000000000000000000000a97684ead0e402dc232d5a977953df7ecbab3cdb00000000000000000000000000000000000000000000000000000000000001c00000000000000000000000000000000000000000000000000000000000000200000000000000000000000000000000000000000000000000000000000000000100000000000000000000000000000000000000000000000000000000000003e800000000000000000000000000000000000000000000000000000000017d784000000000000000000000000000000000000000000000000000000000017d784000000000000000000000000000000000000000000000000000000000004c4b4000000000000000000000000000000000000000000000000000000000004c4b4000000000000000000000000000000000000000000000000000000000000000024c5000000000000000000000000000000000000000000000000000000000000000000000000000000000000000000000000000000000000000000000000000024c50000000000000000000000000000000000000000000000000000000000000",
        "nonce": "0x2c7",
        "chainId": "0xa4b1"
      },
      "additionalContracts": [],
      "isFixedGasLimit": false
    }
  ],
  "receipts": [
    {
      "status": "0x1",
      "cumulativeGasUsed": "0x468a24",
      "logs": [
        {
          "address": "0x360E68faCcca8cA495c1B759Fd9EEe466db9FB32",
          "topics": [
            "0xdd466e674ea557f56295e2d0218a125ea4b4f0f6f3307b95f85e6110838d6438",
            "0x7ec8ddf47afeb8e2e6621e879272e1f92e8dd95f0979c22d399b7a3fe280d307",
            "0x000000000000000000000000da10009cbd5d07dd0cecc66161fc93d7c9000da1",
            "0x000000000000000000000000fd086bc7cd5c481dcc9c85ebe478a1c0b69fcbb9"
          ],
          "data": "0x000000000000000000000000000000000000000000000000000000000000000a0000000000000000000000000000000000000000000000000000000000000001000000000000000000000000ccc7c10b872a9f449fa41ef7a723acb1615548c00000000000000000000000000000000000000000000010c6f7a0b5ed8d36b4c7fffffffffffffffffffffffffffffffffffffffffffffffffffffffffffbc89b",
          "blockHash": "0x9e2805941cb0be14f9289581614e577ca86b8d68ee1bdacc11fe34edf1276564",
          "blockNumber": "0x14020e53",
          "transactionHash": "0xa1dd4abeb87e5863cbe46858a128b4b7ddc11355b719ee83f6ff76eb0322a605",
          "transactionIndex": "0x1",
          "logIndex": "0x0",
          "removed": false
        },
        {
          "address": "0x10BF3E582fc11D5629743E93beDC39b838C603cc",
          "topics": [
            "0x06ff50bb02313073e0bc6b8effcf572f0174f30cfcc297c192bccdfde3cea9f3",
            "0x000000000000000000000000ccc7c10b872a9f449fa41ef7a723acb1615548c0",
            "0x7ec8ddf47afeb8e2e6621e879272e1f92e8dd95f0979c22d399b7a3fe280d307"
          ],
          "data": "0x00000000000000000000000000000000000000000000000000000000000000010000000000000000000000000000000000000000000010c6f7a0b5ed8d36b4c7",
          "blockHash": "0x9e2805941cb0be14f9289581614e577ca86b8d68ee1bdacc11fe34edf1276564",
          "blockNumber": "0x14020e53",
          "transactionHash": "0xa1dd4abeb87e5863cbe46858a128b4b7ddc11355b719ee83f6ff76eb0322a605",
          "transactionIndex": "0x1",
          "logIndex": "0x1",
          "removed": false
        }
      ],
      "logsBloom": "0x00400000000000000000000000000000000000000000000000000008000000000000000000000000000001000000000402000000000000000000000000000000000000000000000001000000000000000000000000000000004000000000000002000080000000000000000000000001000000000000000000002000000000000000000000000008000000000040000000000001800000000000000100200000000000000000000000000000000000000000000000000000000000000000000000000010000000000000000000000000000004000000200000000000000000000000000000000000000800000001000000000000000000000000080000000008",
      "type": "0x2",
      "transactionHash": "0xa1dd4abeb87e5863cbe46858a128b4b7ddc11355b719ee83f6ff76eb0322a605",
      "transactionIndex": "0x1",
      "blockHash": "0x9e2805941cb0be14f9289581614e577ca86b8d68ee1bdacc11fe34edf1276564",
      "blockNumber": "0x14020e53",
      "gasUsed": "0x468a24",
      "effectiveGasPrice": "0x989680",
      "from": "0x8c3D9A0312890527afc6aE4Ee16Ca263Fbb0dCCd",
      "to": "0x10BF3E582fc11D5629743E93beDC39b838C603cc",
      "contractAddress": null,
      "gasUsedForL1": "0x1f41f",
      "l1BlockNumber": "0x156bfe3"
    }
  ],
  "libraries": [],
  "pending": [],
  "returns": {},
  "timestamp": 1746994948,
  "chain": 42161,
  "commit": "5b5cd7d"
}