{
  "transactions": [
    {
      "hash": "0xcd2e609396db8d107b9bb587e54ac0b63ebdfd938ed28d95d74493ea200e4aa7",
      "transactionType": "CALL",
      "contractName": null,
      "contractAddress": "0x0582f41f68117130b1ED5765fF094944a165a382",
      "function": "deployHook((address,address,address,int24,int24,address,string,string,address,uint256,uint256,uint256),address,uint24,int24,bytes32)",
      "arguments": [
        "(0x360E68faCcca8cA495c1B759Fd9EEe466db9FB32, 0xaf88d065e77c8cC2239327C5EDb3A432268e5831, 0xFd086bC7CD5C481DCC9C85ebE478A1C0b69FCbb9, -2, 2, 0xa97684ead0e402dC232d5A977953DF7ECBaB3CDb, LP, LP, 0x0000000000000000000000000000000000000001, 1000, 25000000, 5000000)",
        "0x808A955773C6d66F48a6E66b27591738281408C0",
        "10",
        "1",
        "0x000000000000000000000000000000000000000000000000000000000000f01c"
      ],
      "transaction": {
        "from": "0x8c3D9A0312890527afc6aE4Ee16Ca263Fbb0dCCd",
        "to": "0x0582f41f68117130b1ED5765fF094944a165a382",
        "gas": "0x59190d",
        "value": "0x0",
        "input": "0x080ec1fe00000000000000000000000000000000000000000000000000000000000000a0000000000000000000000000808a955773c6d66f48a6e66b27591738281408c0000000000000000000000000000000000000000000000000000000000000000a0000000000000000000000000000000000000000000000000000000000000001000000000000000000000000000000000000000000000000000000000000f01c000000000000000000000000360e68faccca8ca495c1b759fd9eee466db9fb32000000000000000000000000af88d065e77c8cc2239327c5edb3a432268e5831000000000000000000000000fd086bc7cd5c481dcc9c85ebe478a1c0b69fcbb9fffffffffffffffffffffffffffffffffffffffffffffffffffffffffffffffe0000000000000000000000000000000000000000000000000000000000000002000000000000000000000000a97684ead0e402dc232d5a977953df7ecbab3cdb000000000000000000000000000000000000000000000000000000000000018000000000000000000000000000000000000000000000000000000000000001c0000000000000000000000000000000000000000000000000000000000000000100000000000000000000000000000000000000000000000000000000000003e800000000000000000000000000000000000000000000000000000000017d784000000000000000000000000000000000000000000000000000000000004c4b4000000000000000000000000000000000000000000000000000000000000000024c5000000000000000000000000000000000000000000000000000000000000000000000000000000000000000000000000000000000000000000000000000024c50000000000000000000000000000000000000000000000000000000000000",
        "nonce": "0x1ee",
        "chainId": "0xa4b1"
      },
      "additionalContracts": [],
      "isFixedGasLimit": false
    }
  ],
  "receipts": [
    {
      "status": "0x1",
      "cumulativeGasUsed": "0x43ddd7",
      "logs": [
        {
          "address": "0x360E68faCcca8cA495c1B759Fd9EEe466db9FB32",
          "topics": [
            "0xdd466e674ea557f56295e2d0218a125ea4b4f0f6f3307b95f85e6110838d6438",
            "0xea0907d3e86a8763d9d6450660b9cddfb500e09c5c16387f50e7df866e39429a",
            "0x000000000000000000000000af88d065e77c8cc2239327c5edb3a432268e5831",
            "0x000000000000000000000000fd086bc7cd5c481dcc9c85ebe478a1c0b69fcbb9"
          ],
          "data": "0x000000000000000000000000000000000000000000000000000000000000000a0000000000000000000000000000000000000000000000000000000000000001000000000000000000000000808a955773c6d66f48a6e66b27591738281408c000000000000000000000000000000000000000010000000000000000000000000000000000000000000000000000000000000000000000000000000000000000",
          "blockHash": "0xe5e4788c902f8523df2935ab14bfbde3b8eb09f731b8d7de4c9a6efbbff5b644",
          "blockNumber": "0x14004a72",
          "transactionHash": "0xcd2e609396db8d107b9bb587e54ac0b63ebdfd938ed28d95d74493ea200e4aa7",
          "transactionIndex": "0x1",
          "logIndex": "0x0",
          "removed": false
        },
        {
          "address": "0x0582f41f68117130b1ED5765fF094944a165a382",
          "topics": [
            "0x06ff50bb02313073e0bc6b8effcf572f0174f30cfcc297c192bccdfde3cea9f3",
            "0x000000000000000000000000808a955773c6d66f48a6e66b27591738281408c0",
            "0xea0907d3e86a8763d9d6450660b9cddfb500e09c5c16387f50e7df866e39429a"
          ],
          "data": "0x00000000000000000000000000000000000000000000000000000000000000000000000000000000000000000000000000000001000000000000000000000000",
          "blockHash": "0xe5e4788c902f8523df2935ab14bfbde3b8eb09f731b8d7de4c9a6efbbff5b644",
          "blockNumber": "0x14004a72",
          "transactionHash": "0xcd2e609396db8d107b9bb587e54ac0b63ebdfd938ed28d95d74493ea200e4aa7",
          "transactionIndex": "0x1",
          "logIndex": "0x1",
          "removed": false
        }
      ],
      "logsBloom": "0x00000000000000000000000000000000000000000000000000000000000000000000000000000000100001000000000000000000000000000000000000000000000008000000008011000000000000000000000000000000004000000000000000000000000000000000000000000000000000000000000100000000000000000000000000000008000000000000000000000001000000000000000100200000000000000000000000002000000000080000000000000200001000000400000000000010000000000000000000000000000044000000200000000000000000000000000000000000000000000000000000000000002000000000080000000008",
      "type": "0x2",
      "transactionHash": "0xcd2e609396db8d107b9bb587e54ac0b63ebdfd938ed28d95d74493ea200e4aa7",
      "transactionIndex": "0x1",
      "blockHash": "0xe5e4788c902f8523df2935ab14bfbde3b8eb09f731b8d7de4c9a6efbbff5b644",
      "blockNumber": "0x14004a72",
      "gasUsed": "0x43ddd7",
      "effectiveGasPrice": "0x989680",
      "from": "0x8c3D9A0312890527afc6aE4Ee16Ca263Fbb0dCCd",
      "to": "0x0582f41f68117130b1ED5765fF094944a165a382",
      "contractAddress": null,
      "gasUsedForL1": "0x8b42",
      "l1BlockNumber": "0x156b68b"
    }
  ],
  "libraries": [],
  "pending": [],
  "returns": {},
  "timestamp": 1746965874,
  "chain": 42161,
  "commit": "d4b2d31"
}