{
  "transactions": [
    {
      "hash": "0x6434ff4a7d6eaa73025c2fd6dc0de1b3365834ff6ea1da6c802dd3cceffa2de3",
      "transactionType": "CALL",
      "contractName": null,
      "contractAddress": "0x0582f41f68117130b1ED5765fF094944a165a382",
      "function": "deployHook((address,address,address,int24,int24,address,string,string,address,uint256,uint256,uint256),address,uint24,int24,bytes32)",
      "arguments": [
        "(0x360E68faCcca8cA495c1B759Fd9EEe466db9FB32, 0x5d3a1Ff2b6BAb83b63cd9AD0787074081a52ef34, 0xDA10009cBd5D07dd0CeCc66161FC93D7c9000da1, -2, 2, 0xa97684ead0e402dC232d5A977953DF7ECBaB3CDb, LP, LP, 0x0000000000000000000000000000000000000001, 1000, 25000000, 5000000)",
        "0xFb33711C9adD8f935e57CDBAF9231eb854e608C0",
        "10",
        "1",
        "0x00000000000000000000000000000000000000000000000000000000000061c0"
      ],
      "transaction": {
        "from": "0x8c3D9A0312890527afc6aE4Ee16Ca263Fbb0dCCd",
        "to": "0x0582f41f68117130b1ED5765fF094944a165a382",
        "gas": "0x58d3e1",
        "value": "0x0",
        "input": "0x080ec1fe00000000000000000000000000000000000000000000000000000000000000a0000000000000000000000000fb33711c9add8f935e57cdbaf9231eb854e608c0000000000000000000000000000000000000000000000000000000000000000a000000000000000000000000000000000000000000000000000000000000000100000000000000000000000000000000000000000000000000000000000061c0000000000000000000000000360e68faccca8ca495c1b759fd9eee466db9fb320000000000000000000000005d3a1ff2b6bab83b63cd9ad0787074081a52ef34000000000000000000000000da10009cbd5d07dd0cecc66161fc93d7c9000da1fffffffffffffffffffffffffffffffffffffffffffffffffffffffffffffffe0000000000000000000000000000000000000000000000000000000000000002000000000000000000000000a97684ead0e402dc232d5a977953df7ecbab3cdb000000000000000000000000000000000000000000000000000000000000018000000000000000000000000000000000000000000000000000000000000001c0000000000000000000000000000000000000000000000000000000000000000100000000000000000000000000000000000000000000000000000000000003e800000000000000000000000000000000000000000000000000000000017d784000000000000000000000000000000000000000000000000000000000004c4b4000000000000000000000000000000000000000000000000000000000000000024c5000000000000000000000000000000000000000000000000000000000000000000000000000000000000000000000000000000000000000000000000000024c50000000000000000000000000000000000000000000000000000000000000",
        "nonce": "0x28b",
        "chainId": "0xa4b1"
      },
      "additionalContracts": [],
      "isFixedGasLimit": false
    }
  ],
  "receipts": [
    {
      "status": "0x1",
      "cumulativeGasUsed": "0x44c638",
      "logs": [
        {
          "address": "0x360E68faCcca8cA495c1B759Fd9EEe466db9FB32",
          "topics": [
            "0xdd466e674ea557f56295e2d0218a125ea4b4f0f6f3307b95f85e6110838d6438",
            "0xa04251b5c7576c5e8f69a843e8455cc3e74506988beb7acc2cf4d9c601584d4d",
            "0x0000000000000000000000005d3a1ff2b6bab83b63cd9ad0787074081a52ef34",
            "0x000000000000000000000000da10009cbd5d07dd0cecc66161fc93d7c9000da1"
          ],
          "data": "0x000000000000000000000000000000000000000000000000000000000000000a0000000000000000000000000000000000000000000000000000000000000001000000000000000000000000fb33711c9add8f935e57cdbaf9231eb854e608c000000000000000000000000000000000000000010000000000000000000000000000000000000000000000000000000000000000000000000000000000000000",
          "blockHash": "0x1db2bdacebe05a9a7d6a2ed36604048df7ed1928b86e5ce0f5025cf74f18febf",
          "blockNumber": "0x1401757c",
          "transactionHash": "0x6434ff4a7d6eaa73025c2fd6dc0de1b3365834ff6ea1da6c802dd3cceffa2de3",
          "transactionIndex": "0x2",
          "logIndex": "0x1",
          "removed": false
        },
        {
          "address": "0x0582f41f68117130b1ED5765fF094944a165a382",
          "topics": [
            "0x06ff50bb02313073e0bc6b8effcf572f0174f30cfcc297c192bccdfde3cea9f3",
            "0x000000000000000000000000fb33711c9add8f935e57cdbaf9231eb854e608c0",
            "0xa04251b5c7576c5e8f69a843e8455cc3e74506988beb7acc2cf4d9c601584d4d"
          ],
          "data": "0x00000000000000000000000000000000000000000000000000000000000000010000000000000000000000000000000000000001000000000000000000000000",
          "blockHash": "0x1db2bdacebe05a9a7d6a2ed36604048df7ed1928b86e5ce0f5025cf74f18febf",
          "blockNumber": "0x1401757c",
          "transactionHash": "0x6434ff4a7d6eaa73025c2fd6dc0de1b3365834ff6ea1da6c802dd3cceffa2de3",
          "transactionIndex": "0x2",
          "logIndex": "0x2",
          "removed": false
        }
      ],
      "logsBloom": "0x00000800000000000000000000000000002000000000000000000000000000000000000000000000000001000000000000000000000000000000000000000000000000004000048001000000100000000000000000000000000000000000000000000000000002000000000000000000000000000000000000002000000000000000000000000008000000000000000000000001800000000000000100200000000000000000000000000000000000000000000000000000001000000000000000000010000000000010000000000000000044000000000000000000000000000000000000000000000800000000000000002000000200000000000000000008",
      "type": "0x2",
      "transactionHash": "0x6434ff4a7d6eaa73025c2fd6dc0de1b3365834ff6ea1da6c802dd3cceffa2de3",
      "transactionIndex": "0x2",
      "blockHash": "0x1db2bdacebe05a9a7d6a2ed36604048df7ed1928b86e5ce0f5025cf74f18febf",
      "blockNumber": "0x1401757c",
      "gasUsed": "0x43748d",
      "effectiveGasPrice": "0xc47cc8",
      "from": "0x8c3D9A0312890527afc6aE4Ee16Ca263Fbb0dCCd",
      "to": "0x0582f41f68117130b1ED5765fF094944a165a382",
      "contractAddress": null,
      "gasUsedForL1": "0xd685",
      "l1BlockNumber": "0x156bcba"
    }
  ],
  "libraries": [],
  "pending": [],
  "returns": {},
  "timestamp": 1746985088,
  "chain": 42161,
  "commit": "642784e"
}