{
  "transactions": [
    {
      "hash": "0x2b1aef2a0d2e8a35bee95c770278b7ed1eece6f5a32a022e5b80e4833b29bef5",
      "transactionType": "CALL",
      "contractName": null,
      "contractAddress": "0x10BF3E582fc11D5629743E93beDC39b838C603cc",
      "function": "deployHook((address,address,address,int24,int24,address,string,string,address,uint256,uint256,uint256,uint256,uint256),address,uint160,uint24,int24,bytes32)",
      "arguments": [
        "(0x360E68faCcca8cA495c1B759Fd9EEe466db9FB32, 0xaf88d065e77c8cC2239327C5EDb3A432268e5831, 0xFd086bC7CD5C481DCC9C85ebE478A1C0b69FCbb9, -2, 2, 0xa97684ead0e402dC232d5A977953DF7ECBaB3CDb, LP, LP, 0x0000000000000000000000000000000000000001, 1000, 25000000, 25000000, 5000000, 5000000)",
        "0xEe0e83e362f2F4A969D1d9c6eb04d400Bb1bC8c0",
        "79228162514264337593543950336",
        "10",
        "1",
        "0x0000000000000000000000000000000000000000000000000000000000000c8e"
      ],
      "transaction": {
        "from": "0x8c3D9A0312890527afc6aE4Ee16Ca263Fbb0dCCd",
        "to": "0x10BF3E582fc11D5629743E93beDC39b838C603cc",
        "gas": "0x5d5e63",
        "value": "0x0",
        "input": "0x84a8254500000000000000000000000000000000000000000000000000000000000000c0000000000000000000000000ee0e83e362f2f4a969d1d9c6eb04d400bb1bc8c00000000000000000000000000000000000000001000000000000000000000000000000000000000000000000000000000000000000000000000000000000000a00000000000000000000000000000000000000000000000000000000000000010000000000000000000000000000000000000000000000000000000000000c8e000000000000000000000000360e68faccca8ca495c1b759fd9eee466db9fb32000000000000000000000000af88d065e77c8cc2239327c5edb3a432268e5831000000000000000000000000fd086bc7cd5c481dcc9c85ebe478a1c0b69fcbb9fffffffffffffffffffffffffffffffffffffffffffffffffffffffffffffffe0000000000000000000000000000000000000000000000000000000000000002000000000000000000000000a97684ead0e402dc232d5a977953df7ecbab3cdb00000000000000000000000000000000000000000000000000000000000001c00000000000000000000000000000000000000000000000000000000000000200000000000000000000000000000000000000000000000000000000000000000100000000000000000000000000000000000000000000000000000000000003e800000000000000000000000000000000000000000000000000000000017d784000000000000000000000000000000000000000000000000000000000017d784000000000000000000000000000000000000000000000000000000000004c4b4000000000000000000000000000000000000000000000000000000000004c4b4000000000000000000000000000000000000000000000000000000000000000024c5000000000000000000000000000000000000000000000000000000000000000000000000000000000000000000000000000000000000000000000000000024c50000000000000000000000000000000000000000000000000000000000000",
        "nonce": "0x2bf",
        "chainId": "0xa4b1"
      },
      "additionalContracts": [],
      "isFixedGasLimit": false
    }
  ],
  "receipts": [
    {
      "status": "0x1",
      "cumulativeGasUsed": "0x48294e",
      "logs": [
        {
          "address": "0x360E68faCcca8cA495c1B759Fd9EEe466db9FB32",
          "topics": [
            "0xdd466e674ea557f56295e2d0218a125ea4b4f0f6f3307b95f85e6110838d6438",
            "0x775253e1a54c55f1f0cbc143fb035cd60c459a1db2251b6bc494886f978a0f2a",
            "0x000000000000000000000000af88d065e77c8cc2239327c5edb3a432268e5831",
            "0x000000000000000000000000fd086bc7cd5c481dcc9c85ebe478a1c0b69fcbb9"
          ],
          "data": "0x000000000000000000000000000000000000000000000000000000000000000a0000000000000000000000000000000000000000000000000000000000000001000000000000000000000000ee0e83e362f2f4a969d1d9c6eb04d400bb1bc8c000000000000000000000000000000000000000010000000000000000000000000000000000000000000000000000000000000000000000000000000000000000",
          "blockHash": "0x66b902343994d8bfdbf40e74ff0d70c65e3839c603557e2976e412774a051756",
          "blockNumber": "0x14020b02",
          "transactionHash": "0x2b1aef2a0d2e8a35bee95c770278b7ed1eece6f5a32a022e5b80e4833b29bef5",
          "transactionIndex": "0x2",
          "logIndex": "0x0",
          "removed": false
        },
        {
          "address": "0x10BF3E582fc11D5629743E93beDC39b838C603cc",
          "topics": [
            "0x06ff50bb02313073e0bc6b8effcf572f0174f30cfcc297c192bccdfde3cea9f3",
            "0x000000000000000000000000ee0e83e362f2f4a969d1d9c6eb04d400bb1bc8c0",
            "0x775253e1a54c55f1f0cbc143fb035cd60c459a1db2251b6bc494886f978a0f2a"
          ],
          "data": "0x00000000000000000000000000000000000000000000000000000000000000000000000000000000000000000000000000000001000000000000000000000000",
          "blockHash": "0x66b902343994d8bfdbf40e74ff0d70c65e3839c603557e2976e412774a051756",
          "blockNumber": "0x14020b02",
          "transactionHash": "0x2b1aef2a0d2e8a35bee95c770278b7ed1eece6f5a32a022e5b80e4833b29bef5",
          "transactionIndex": "0x2",
          "logIndex": "0x1",
          "removed": false
        }
      ],
      "logsBloom": "0x00400000000000000000000000000000000000000000000000000000000000000000000000000000100001000000000000000000000000010000000000000000000000000000000001000000000800000000000000000000004002000000000002000080000000000000000000000001000000000000000000000000000000000000000200000008000000000000000000000001000000000000000100200000000000000000000000000000000000000000000000000000000000000400000000000010000000000000200000000000000004000000200000000000000000000000000000000000000000000000000000000000002000000000080000000008",
      "type": "0x2",
      "transactionHash": "0x2b1aef2a0d2e8a35bee95c770278b7ed1eece6f5a32a022e5b80e4833b29bef5",
      "transactionIndex": "0x2",
      "blockHash": "0x66b902343994d8bfdbf40e74ff0d70c65e3839c603557e2976e412774a051756",
      "blockNumber": "0x14020b02",
      "gasUsed": "0x46df39",
      "effectiveGasPrice": "0x989680",
      "from": "0x8c3D9A0312890527afc6aE4Ee16Ca263Fbb0dCCd",
      "to": "0x10BF3E582fc11D5629743E93beDC39b838C603cc",
      "contractAddress": null,
      "gasUsedForL1": "0x1e1e4",
      "l1BlockNumber": "0x156bfd3"
    }
  ],
  "libraries": [],
  "pending": [],
  "returns": {},
  "timestamp": 1746994734,
  "chain": 42161,
  "commit": "5b5cd7d"
}