{
  "transactions": [
    {
      "hash": "0x85f7ed9544ebd8dcc74f57734a90279b61202f08d9e5dee449755fa79987177b",
      "transactionType": "CALL",
      "contractName": null,
      "contractAddress": "0x0bAa97cD4A375649d21E72824f6cF226Aac96dA9",
      "function": "deployHook((address,address,address,int24,int24,address,string,string,address,uint256,uint256,uint256,uint256,uint256),address,uint160,uint24,int24,bytes32)",
      "arguments": [
        "(0x360E68faCcca8cA495c1B759Fd9EEe466db9FB32, 0xaf88d065e77c8cC2239327C5EDb3A432268e5831, 0xFd086bC7CD5C481DCC9C85ebE478A1C0b69FCbb9, -2, 2, 0xa97684ead0e402dC232d5A977953DF7ECBaB3CDb, LP, LP, 0x0000000000000000000000000000000000000001, 1000, 25000000, 25000000, 5000000, 5000000)",
        "0xf30eA78C670775f4B9Bcae390c3d045ED01D88c0",
        "79228162514264337593543950336",
        "10",
        "1",
        "0x00000000000000000000000000000000000000000000000000000000000008ec"
      ],
      "transaction": {
        "from": "0x8c3D9A0312890527afc6aE4Ee16Ca263Fbb0dCCd",
        "to": "0x0bAa97cD4A375649d21E72824f6cF226Aac96dA9",
        "gas": "0x5b442b",
        "value": "0x0",
        "input": "0x84a8254500000000000000000000000000000000000000000000000000000000000000c0000000000000000000000000f30ea78c670775f4b9bcae390c3d045ed01d88c00000000000000000000000000000000000000001000000000000000000000000000000000000000000000000000000000000000000000000000000000000000a000000000000000000000000000000000000000000000000000000000000000100000000000000000000000000000000000000000000000000000000000008ec000000000000000000000000360e68faccca8ca495c1b759fd9eee466db9fb32000000000000000000000000af88d065e77c8cc2239327c5edb3a432268e5831000000000000000000000000fd086bc7cd5c481dcc9c85ebe478a1c0b69fcbb9fffffffffffffffffffffffffffffffffffffffffffffffffffffffffffffffe0000000000000000000000000000000000000000000000000000000000000002000000000000000000000000a97684ead0e402dc232d5a977953df7ecbab3cdb00000000000000000000000000000000000000000000000000000000000001c00000000000000000000000000000000000000000000000000000000000000200000000000000000000000000000000000000000000000000000000000000000100000000000000000000000000000000000000000000000000000000000003e800000000000000000000000000000000000000000000000000000000017d784000000000000000000000000000000000000000000000000000000000017d784000000000000000000000000000000000000000000000000000000000004c4b4000000000000000000000000000000000000000000000000000000000004c4b4000000000000000000000000000000000000000000000000000000000000000024c5000000000000000000000000000000000000000000000000000000000000000000000000000000000000000000000000000000000000000000000000000024c50000000000000000000000000000000000000000000000000000000000000",
        "nonce": "0x2a3",
        "chainId": "0xa4b1"
      },
      "additionalContracts": [],
      "isFixedGasLimit": false
    }
  ],
  "receipts": [
    {
      "status": "0x1",
      "cumulativeGasUsed": "0x45fcb3",
      "logs": [
        {
          "address": "0x360E68faCcca8cA495c1B759Fd9EEe466db9FB32",
          "topics": [
            "0xdd466e674ea557f56295e2d0218a125ea4b4f0f6f3307b95f85e6110838d6438",
            "0x832f895434fc5223e9f73df3fad21752739aba21578d03125a2f7a98001ebd5e",
            "0x000000000000000000000000af88d065e77c8cc2239327c5edb3a432268e5831",
            "0x000000000000000000000000fd086bc7cd5c481dcc9c85ebe478a1c0b69fcbb9"
          ],
          "data": "0x000000000000000000000000000000000000000000000000000000000000000a0000000000000000000000000000000000000000000000000000000000000001000000000000000000000000f30ea78c670775f4b9bcae390c3d045ed01d88c000000000000000000000000000000000000000010000000000000000000000000000000000000000000000000000000000000000000000000000000000000000",
          "blockHash": "0x4e0717a26b0801433d5f1593a2d2ba69d760ba05e68121072686970b86a806f2",
          "blockNumber": "0x1401d5a1",
          "transactionHash": "0x85f7ed9544ebd8dcc74f57734a90279b61202f08d9e5dee449755fa79987177b",
          "transactionIndex": "0x2",
          "logIndex": "0x0",
          "removed": false
        },
        {
          "address": "0x0bAa97cD4A375649d21E72824f6cF226Aac96dA9",
          "topics": [
            "0x06ff50bb02313073e0bc6b8effcf572f0174f30cfcc297c192bccdfde3cea9f3",
            "0x000000000000000000000000f30ea78c670775f4b9bcae390c3d045ed01d88c0",
            "0x832f895434fc5223e9f73df3fad21752739aba21578d03125a2f7a98001ebd5e"
          ],
          "data": "0x00000000000000000000000000000000000000000000000000000000000000000000000000000000000000000000000000000001000000000000000000000000",
          "blockHash": "0x4e0717a26b0801433d5f1593a2d2ba69d760ba05e68121072686970b86a806f2",
          "blockNumber": "0x1401d5a1",
          "transactionHash": "0x85f7ed9544ebd8dcc74f57734a90279b61202f08d9e5dee449755fa79987177b",
          "transactionIndex": "0x2",
          "logIndex": "0x1",
          "removed": false
        }
      ],
      "logsBloom": "0x00000000000000000000000000000008000000000000000000000000000000000000000000000000100001000000000000000000000000000008000000000000000000000040000001000400000000000000000000000000004000000000000000000000000000000000000000000000000000000000000000000004000000000000000000000008000000002000000000200001000000000000000100200000000000000000000000000000000000000004000000000000000000000400000000000010000000000000000000000000000204000000200000000000000000000000000000000000000000000000000000000000002000000000080000000008",
      "type": "0x2",
      "transactionHash": "0x85f7ed9544ebd8dcc74f57734a90279b61202f08d9e5dee449755fa79987177b",
      "transactionIndex": "0x2",
      "blockHash": "0x4e0717a26b0801433d5f1593a2d2ba69d760ba05e68121072686970b86a806f2",
      "blockNumber": "0x1401d5a1",
      "gasUsed": "0x458488",
      "effectiveGasPrice": "0x989680",
      "from": "0x8c3D9A0312890527afc6aE4Ee16Ca263Fbb0dCCd",
      "to": "0x0bAa97cD4A375649d21E72824f6cF226Aac96dA9",
      "contractAddress": null,
      "gasUsedForL1": "0x85b0",
      "l1BlockNumber": "0x156beb7"
    }
  ],
  "libraries": [],
  "pending": [],
  "returns": {},
  "timestamp": 1746991287,
  "chain": 42161,
  "commit": "5b5cd7d"
}