{
  "transactions": [
    {
      "hash": "0x5048bfb62d25aadba46792c4d118ff3b757fcd9a45ba4b4de1fb7223256e857d",
      "transactionType": "CALL",
      "contractName": null,
      "contractAddress": "0x0582f41f68117130b1ED5765fF094944a165a382",
      "function": "deployHook((address,address,address,int24,int24,address,string,string,address,uint256,uint256,uint256),address,uint24,int24,bytes32)",
      "arguments": [
        "(0x360E68faCcca8cA495c1B759Fd9EEe466db9FB32, 0x7dfF72693f6A4149b17e7C6314655f6A9F7c8B33, 0xDA10009cBd5D07dd0CeCc66161FC93D7c9000da1, -2, 2, 0xa97684ead0e402dC232d5A977953DF7ECBaB3CDb, LP, LP, 0x0000000000000000000000000000000000000001, 1000, 25000000, 5000000)",
        "0x7e1993d03BD50AE43dEA6E3d2e1027aB1213C8c0",
        "10",
        "1",
        "0x0000000000000000000000000000000000000000000000000000000000002ee6"
      ],
      "transaction": {
        "from": "0x8c3D9A0312890527afc6aE4Ee16Ca263Fbb0dCCd",
        "to": "0x0582f41f68117130b1ED5765fF094944a165a382",
        "gas": "0x58eeff",
        "value": "0x0",
        "input": "0x080ec1fe00000000000000000000000000000000000000000000000000000000000000a00000000000000000000000007e1993d03bd50ae43dea6e3d2e1027ab1213c8c0000000000000000000000000000000000000000000000000000000000000000a00000000000000000000000000000000000000000000000000000000000000010000000000000000000000000000000000000000000000000000000000002ee6000000000000000000000000360e68faccca8ca495c1b759fd9eee466db9fb320000000000000000000000007dff72693f6a4149b17e7c6314655f6a9f7c8b33000000000000000000000000da10009cbd5d07dd0cecc66161fc93d7c9000da1fffffffffffffffffffffffffffffffffffffffffffffffffffffffffffffffe0000000000000000000000000000000000000000000000000000000000000002000000000000000000000000a97684ead0e402dc232d5a977953df7ecbab3cdb000000000000000000000000000000000000000000000000000000000000018000000000000000000000000000000000000000000000000000000000000001c0000000000000000000000000000000000000000000000000000000000000000100000000000000000000000000000000000000000000000000000000000003e800000000000000000000000000000000000000000000000000000000017d784000000000000000000000000000000000000000000000000000000000004c4b4000000000000000000000000000000000000000000000000000000000000000024c5000000000000000000000000000000000000000000000000000000000000000000000000000000000000000000000000000000000000000000000000000024c50000000000000000000000000000000000000000000000000000000000000",
        "nonce": "0x294",
        "chainId": "0xa4b1"
      },
      "additionalContracts": [],
      "isFixedGasLimit": false
    }
  ],
  "receipts": [
    {
      "status": "0x1",
      "cumulativeGasUsed": "0x45fad9",
      "logs": [
        {
          "address": "0x360E68faCcca8cA495c1B759Fd9EEe466db9FB32",
          "topics": [
            "0xdd466e674ea557f56295e2d0218a125ea4b4f0f6f3307b95f85e6110838d6438",
            "0xe4f5712fa24b6300c1c6bb7d821127f701e62ed93adb38024d309fe7a26d1b35",
            "0x0000000000000000000000007dff72693f6a4149b17e7c6314655f6a9f7c8b33",
            "0x000000000000000000000000da10009cbd5d07dd0cecc66161fc93d7c9000da1"
          ],
          "data": "0x000000000000000000000000000000000000000000000000000000000000000a00000000000000000000000000000000000000000000000000000000000000010000000000000000000000007e1993d03bd50ae43dea6e3d2e1027ab1213c8c000000000000000000000000000000000000000010000000000000000000000000000000000000000000000000000000000000000000000000000000000000000",
          "blockHash": "0xa2a14cd72c205dabee11fc5d73296d85934f826a678d118ca2f5eb4618a455bd",
          "blockNumber": "0x14018526",
          "transactionHash": "0x5048bfb62d25aadba46792c4d118ff3b757fcd9a45ba4b4de1fb7223256e857d",
          "transactionIndex": "0x2",
          "logIndex": "0x4",
          "removed": false
        },
        {
          "address": "0x0582f41f68117130b1ED5765fF094944a165a382",
          "topics": [
            "0x06ff50bb02313073e0bc6b8effcf572f0174f30cfcc297c192bccdfde3cea9f3",
            "0x0000000000000000000000007e1993d03bd50ae43dea6e3d2e1027ab1213c8c0",
            "0xe4f5712fa24b6300c1c6bb7d821127f701e62ed93adb38024d309fe7a26d1b35"
          ],
          "data": "0x00000000000000000000000000000000000000000000000000000000000000020000000000000000000000000000000000000001000000000000000000000000",
          "blockHash": "0xa2a14cd72c205dabee11fc5d73296d85934f826a678d118ca2f5eb4618a455bd",
          "blockNumber": "0x14018526",
          "transactionHash": "0x5048bfb62d25aadba46792c4d118ff3b757fcd9a45ba4b4de1fb7223256e857d",
          "transactionIndex": "0x2",
          "logIndex": "0x5",
          "removed": false
        }
      ],
      "logsBloom": "0x00000000000000000000000000000000000000000000000000000000000000400000000000000000000001000000000000000000000000000000000000001000000000000000008001000000000000000000000000000000000000000000000400000000000000000000000000000000000000000000000000002000000000000000000000000008000000000000000000000101800000000000000100200000800000000000000080000000000000000000000000000000001080000000000000000010000000000000000000000000000044000000000000000000000010000000000000000000100800000000000000000000000000000000000000000008",
      "type": "0x2",
      "transactionHash": "0x5048bfb62d25aadba46792c4d118ff3b757fcd9a45ba4b4de1fb7223256e857d",
      "transactionIndex": "0x2",
      "blockHash": "0xa2a14cd72c205dabee11fc5d73296d85934f826a678d118ca2f5eb4618a455bd",
      "blockNumber": "0x14018526",
      "gasUsed": "0x43b5ef",
      "effectiveGasPrice": "0x989680",
      "from": "0x8c3D9A0312890527afc6aE4Ee16Ca263Fbb0dCCd",
      "to": "0x0582f41f68117130b1ED5765fF094944a165a382",
      "contractAddress": null,
      "gasUsedForL1": "0xade0",
      "l1BlockNumber": "0x156bd0c"
    }
  ],
  "libraries": [],
  "pending": [],
  "returns": {},
  "timestamp": 1746986098,
  "chain": 42161,
  "commit": "642784e"
}